:020000040000FA
:0400000007EF00F016
:0A0008004082AFED0BF0CBEF0AF0E1
:10080000000C427261636F20526F626F7469636F94
:100810003A0A2A2D54657374617220232D436F6E3A
:1008200066000C4573636F6C6861206F20536572BE
:10083000766F3A0A31203220332034202A2D455356
:1008400043000C427261636F20526F626F74696380
:100850006F0A48656E7269717565204E2E20522EA2
:10086000000C53616C76617220506F73692D3120DA
:10087000530A2A2D45534320232D454E54455200FB
:100880000C53616C76617220506F73692D32205366
:100890000A2A2D45534320232D454E544552000C22
:1008A0005072657373696F6E65202A2D4553430A34
:1008B000533A2020202070776D3A000C4573636F07
:1008C0006C6861204D6F762D530A312D50312032E6
:0508D0002D5032000074
:1008D600000E376E839683848382838081B076EFA1
:1008E60004F07AEF04F01B6A1B2A7BEF04F01B6A04
:1008F600000E30B2010E1B18D8B484EF04F086EF58
:1009060004F095EF04F030A28BEF04F08DEF04F0C5
:1009160093EF04F03092310E376E2E8295EF04F08D
:1009260030822E8281B29AEF04F09EEF04F01B6AA9
:100936001B2A9FEF04F01B6A000E30B0010E1B1835
:10094600D8B4A8EF04F0AAEF04F0B9EF04F030A091
:10095600AFEF04F0B1EF04F0B7EF04F03090320ED1
:10096600376E2E82B9EF04F030802E8281B4BEEF4E
:1009760004F0C2EF04F01B6A1B2AC3EF04F01B6AE3
:10098600000E2FBE010E1B18D8B4CCEF04F0CEEF2C
:1009960004F0DDEF04F02FAED3EF04F0D5EF04F052
:1009A600DBEF04F02F9E330E376E2E82DDEF04F060
:1009B6002F8E2E82838683948382838081B0E6EF96
:1009C60004F0EAEF04F01B6A1B2AEBEF04F01B6A43
:1009D600000E2FBA010E1B18D8B4F4EF04F0F6EF90
:1009E60004F005EF05F02FAAFBEF04F0FDEF04F08D
:1009F60003EF05F02F9A340E376E2E8205EF05F0C1
:100A06002F8A2E8281B20AEF05F00EEF05F01B6ADF
:100A16001B2A0FEF05F01B6A000E2FB8010E1B18DC
:100A2600D8B418EF05F01AEF05F029EF05F02FA856
:100A36001FEF05F021EF05F027EF05F02F98350E93
:100A4600376E2E8229EF05F02F882E8281B42EEF85
:100A560005F032EF05F01B6A1B2A33EF05F01B6A1F
:100A6600000E2FB6010E1B18D8B43CEF05F03EEF72
:100A760005F04DEF05F02FA643EF05F045EF05F025
:100A86004BEF05F02F96360E376E2E824DEF05F0A2
:100A96002F862E82838683848392838081B056EF4D
:100AA60005F05AEF05F01B6A1B2A5BEF05F01B6A7F
:100AB600000E2FB2010E1B18D8B464EF05F066EFD6
:100AC60005F075EF05F02FA26BEF05F06DEF05F061
:100AD60073EF05F02F92370E376E2E8275EF05F005
:100AE6002F822E8281B27AEF05F07EEF05F01B6A27
:100AF6001B2A7FEF05F01B6A000E2FB0010E1B1894
:100B0600D8B488EF05F08AEF05F099EF05F02FA02D
:100B16008FEF05F091EF05F097EF05F02F90380E67
:100B2600376E2E8299EF05F02F802E8281B49EEFCC
:100B360005F0A2EF05F01B6A1B2AA3EF05F01B6A5E
:100B4600000E2EBE010E1B18D8B4ACEF05F0AEEFAA
:100B560005F0BDEF05F02EAEB3EF05F0B5EF05F0ED
:100B6600BBEF05F02E9E390E376E2E82BDEF05F0D7
:100B76002E8E2E82838683848382839081B0C6EFF5
:100B860005F0CAEF05F01B6A1B2ACBEF05F01B6ABE
:100B9600000E2EBA010E1B18D8B4D4EF05F0D6EF0E
:100BA60005F0E5EF05F02EAADBEF05F0DDEF05F029
:100BB600E3EF05F02E9A2A0E376E2E82E5EF05F04A
:100BC6002E8A2E8281B2EAEF05F0EEEF05F01B6A5F
:100BD6001B2AEFEF05F01B6A000E2EB8010E1B183C
:100BE600D8B4F8EF05F0FAEF05F009EF06F02EA8F5
:100BF600FFEF05F001EF06F007EF06F02E98300E36
:100C0600376E2E8209EF06F02E882E8281B40EEF03
:100C160006F012EF06F01B6A1B2A13EF06F01B6A9A
:100C2600000E2EB6010E1B18D8B41CEF06F01EEFF0
:100C360006F02DEF06F02EA623EF06F025EF06F0C0
:100C46002BEF06F02E96230E376E2E822DEF06F032
:100C56002E862E821200000E2B6E34EF07F065EC06
:100C66000BF02B6E230E2B18D8A43CEF06F03EEFAC
:100C760006F042EF06F0020E156E8BEC0BF02A0E14
:100C86002B18D8A449EF06F04BEF06F059EF07F002
:100C9600CEEC0BF0060E156E59EF07F065EC0BF077
:100CA6002B6E310E2B18D8A45BEF06F05DEF06F025
:100CB60063EF06F0030E156E010E176E39EC0BF09E
:100CC600320E2B18D8A46AEF06F06CEF06F072EF1E
:100CD60006F0030E156E020E176E39EC0BF0330E8E
:100CE6002B18D8A479EF06F07BEF06F081EF06F01B
:100CF600030E156E030E176E39EC0BF0340E2B181F
:100D0600D8A488EF06F08AEF06F090EF06F0030EFF
:100D1600156E040E176E39EC0BF02A0E2B18D8A49C
:100D260097EF06F099EF06F059EF07F0010E156EF2
:100D36008BEC0BF059EF07F065EC0BF02B6E72ECB9
:100D46000BF01DC01FF01EC020F0000E226E100E0C
:100D5600216E30EC09F01FC029F020C02AF011C026
:100D660031F012C032F029C01BF02AC01CF0D5ECBD
:100D76000BF0310E2B18D8A4C3EF06F0C5EF06F022
:100D8600C9EF06F0040E156E2AEC0BF0320E2B1886
:100D9600D8A4D0EF06F0D2EF06F059EF07F0050E13
:100DA600156E1BEC0BF059EF07F065EC0BF02B6E94
:100DB600230E2B18D8A4E2EF06F0E4EF06F0F1EFCD
:100DC60006F0010E156E000E92EC09F0000E326E62
:100DD600000E316E000E176E97EC0BF02A0E2B18D4
:100DE600D8A4F8EF06F0FAEF06F059EF07F0010E77
:100DF600156E31C01BF032C01CF0D5EC0BF0000EA6
:100E0600326E000E316E000E176E97EC0BF059EF36
:100E160007F065EC0BF02B6E230E2B18D8A416EFFB
:100E260007F018EF07F025EF07F0010E156E010E1B
:100E360092EC09F0000E326E000E316E000E176E47
:100E460097EC0BF02A0E2B18D8A42CEF07F02EEFF8
:100E560007F059EF07F0FAEF06F05AEC07F059EFF2
:100E660007F01550276E286A2850000AD8B43EEFBE
:100E760007F059EF07F02750010AD8B432EF06F011
:100E8600030AD8B451EF06F0010AD8B49FEF06F072
:100E9600070AD8B4D8EF06F0010AD8B40CEF07F069
:100EA600030AD8B430EF07F059EF07F012004AEF03
:100EB60008F065EC0BF0246E010E176E2EB066EF8F
:100EC60007F069EF07F0010E6AEF07F0000E226ED9
:100ED600236AD890223623360D0E2224D96E000EB0
:100EE6002320DA6EDECF1BF0DDCF1CF0D5EC0BF045
:100EF600000E1C6EC20EEBEC0AF0175078EC0AF0EE
:100F0600000E1C6ECA0EEBEC0AF0115078EC0AF0DB
:100F16002A0E2418D8A492EF07F094EF07F067EF93
:100F260008F0010E156E000E176E97EC0BF067EFCA
:100F360008F065EC0BF0246E020E176E2EB0A6EFCD
:100F460007F0A9EF07F0010EAAEF07F0000E226ED8
:100F5600236AD89022362336090E2224D96E000E33
:100F66002320DA6EDECF1BF0DDCF1CF0D5EC0BF0C4
:100F7600000E1C6EC20EEBEC0AF0175078EC0AF06D
:100F8600000E1C6ECA0EEBEC0AF0115078EC0AF05B
:100F96002A0E2418D8A4D2EF07F0D4EF07F067EF93
:100FA60008F094EF07F065EC0BF0246E030E176E55
:100FB6002EB0E0EF07F0E3EF07F0010EE4EF07F0E5
:100FC600000E226E236AD89022362336050E22247E
:100FD600D96E000E2320DA6EDECF1BF0DDCF1CF0BB
:100FE600D5EC0BF0000E1C6EC20EEBEC0AF017509F
:100FF60078EC0AF0000E1C6ECA0EEBEC0AF01150EB
:1010060078EC0AF02A0E2418D8A40CEF08F00EEF9C
:1010160008F067EF08F094EF07F065EC0BF0246E2C
:10102600040E176E2EB01AEF08F01DEF08F0010E31
:101036001EEF08F0000E226E236AD8902236233661
:10104600010E2224D96E000E2320DA6EDECF1BF0AD
:10105600DDCF1CF0D5EC0BF0000E1C6EC20EEBECD7
:101066000AF0175078EC0AF0000E1C6ECA0EEBEC74
:101076000AF0115078EC0AF02A0E2418D8A446EF8C
:1010860008F048EF08F067EF08F094EF07F0165005
:10109600226E236A2350000AD8B454EF08F067EF93
:1010A60008F02250010AD8B45CEF07F0030AD8B45E
:1010B6009CEF07F0010AD8B4D6EF07F0070AD8B4B8
:1010C60010EF08F067EF08F01200F29457EC0BF0FF
:1010D600142E12EF09F0080E1318D8A475EF08F0B5
:1010E60077EF08F079EF08F0010E166E060E13186A
:1010F600D8A480EF08F082EF08F084EF08F0020E23
:10110600166E040E1318D8A48BEF08F08DEF08F0B6
:101116008FEF08F0030E166E020E1318D8A496EF82
:1011260008F098EF08F09AEF08F0040E166E132EEA
:101136009FEF08F0080E136E3F0E146E2EA0A6EF5A
:1011460008F0A8EF08F0ABEF08F02E9012EF09F0C8
:101156002E8012EF09F081A6B3EF08F0B5EF08F084
:10116600BCEF08F011C0D6FF12C0D7FF81962FEF53
:1011760009F01150FF08D66E1250D8A0E82A0008D0
:10118600D76E81862FEF09F081A8CCEF08F0CEEF5D
:1011960008F0D5EF08F011C0D6FF12C0D7FF81982E
:1011A6002FEF09F01150FF08D66E1250D8A0E82A8A
:1011B6000008D76E81882FEF09F080A4E5EF08F0CC
:1011C600E7EF08F0EEEF08F011C0D6FF12C0D7FF28
:1011D60080942FEF09F01150FF08D66E1250D8A058
:1011E600E82A0008D76E80842FEF09F080A6FEEF6C
:1011F60008F000EF09F007EF09F011C0D6FF12C0A2
:10120600D7FF80962FEF09F01150FF08D66E1250C7
:10121600D8A0E82A0008D76E80862FEF09F017506D
:10122600196E1A6A1A50000AD8B41CEF09F02FEF8B
:1012360009F01950010AD8B4AEEF08F0030AD8B481
:10124600C7EF08F0010AD8B4E0EF08F0070AD8B4EF
:10125600F9EF08F02FEF09F01200000E246E22BEFF
:1012660039EF09F037EF09F03FEF09F0216C221E44
:10127600D8B0222A010E246E20BE46EF09F044EFB4
:1012860009F04CEF09F01F6C201ED8B0202A010E81
:10129600241A000E266E000E256E21502210D8B498
:1012A60057EF09F059EF09F081EF09F0010E236EAF
:1012B60061EF09F0D89021362236232A22AE66EF56
:1012C60009F068EF09F05DEF09F0D890253626366B
:1012D60021501F5C22502058D8A074EF09F076EFF9
:1012E60009F07BEF09F021501F5E2250205A25801D
:1012F600D89022322132232E68EF09F02450D8B438
:1013060087EF09F089EF09F08DEF09F0256C261EAD
:10131600D8B0262A25C01FF026C020F012001D6E68
:10132600CDEF09F01D50020D0D0EF324D96E000EFF
:10133600F420DA6E11C0DEFF12C0DDFFEAEF09F01D
:101346001D50020D090EF324D96E000EF420DA6E3C
:1013560011C0DEFF12C0DDFFEAEF09F01D50020DDD
:10136600050EF324D96E000EF420DA6E11C0DEFFEE
:1013760012C0DDFFEAEF09F01D50020D010EF32445
:10138600D96E000EF420DA6E11C0DEFF12C0DDFF4A
:10139600EAEF09F017501B6E1C6A1C50000AD8B4FD
:1013A600D7EF09F0EAEF09F01B50010AD8B495EF20
:1013B60009F0030AD8B4A3EF09F0010AD8B4B1EFD3
:1013C60009F0070AD8B4BFEF09F0EAEF09F01200F6
:1013D6002BEF0AF0000E1C6EC00EEBEC0AF029EFA4
:1013E6000AF0000E1C6E010EEBEC0AF0060E206EE3
:1013F600300EE82EFED7202EFCD700D029EF0AF0BB
:10140600010E1C6E1EC0F6FF1FC0F7FF0800F55048
:10141600EBEC0AF029EF0AF01EC0F6FF1FC0F7FF3B
:101426000800F550206E216A2150000AD8B41EEF3C
:101436000AF003EF0AF020500A0AD8B4EDEF09F0DB
:10144600060AD8B4F4EF09F003EF0AF01E4A1F2A81
:101456001EC0F6FF1FC0F7FF0800F5500009D8A40C
:1014660037EF0AF039EF0AF00FEF0AF01200000E1C
:10147600956E000E966E84928494820E1E6EDE0E1B
:10148600E82EFED71E2EFCD78482200EC6EC0BF06B
:101496000D0E1E6EFC0EE82EFED71E2EFCD7000E7D
:1014A6001C6E280EEBEC0AF0030E1E6E980EE82E4C
:1014B600FED71E2EFCD7000E1C6E280EEBEC0AF093
:1014C600000E1C6E080EEBEC0AF0000E1C6E0F0EE2
:1014D600EBEC0AF0000E1C6E010EEBEC0AF0000EAF
:1014E6001C6E060EEBEC0AF012001E6E300E3F6EFE
:1014F600300E3E6E82EF0AF03F2A640E1E5E640EC8
:101506001E6088EF0AF08AEF0AF07FEF0AF08FEF8D
:101516000AF03E2A0A0E1E5E0A0E1E6095EF0AF0BB
:1015260097EF0AF08CEF0AF01E50300F3D6E010E59
:101536001C6E3F50EBEC0AF0010E1C6E3E50EBECBD
:101546000AF0010E1C6E3D50EBEC0AF0120048EC5E
:101556000BF0420E1E6E080E1F6EEBEC09F0000E2D
:101566001C6E0C0EEBEC0AF0290E2D6E960E2C6EF0
:101576007F0EE82EFED72C2EFCD72D2EFAD700F0A4
:1015860097EC0BF02EEC06F0C5EF0AF007EF00F033
:10159600FE0EF66E160EF76E000EF86E00EE01F0F9
:1015A60010EE18F00900F5CFEEFFE550E150FAE134
:1015B600306A2F6A2E6A00EE31F00F0EEE6AE806E8
:1015C600FDE140904092000EF86E0001AAEF0AF08D
:1015D6001D6E1C50D8B4F2EF0AF0F4EF0AF0F7EFE4
:1015E6000AF08484F8EF0AF084941D50F00BC6ECE0
:1015F6000BF01D38F00BC6EC0BF0210EE82EFED7D3
:1016060000F01200C280C250C30B0409C26EC2921F
:10161600C150F00B0E09C16EC198C19AC050C70BDC
:101626000809C06EC050F80B0109C06EC08E1200CA
:10163600800E1E6E080E1F6EEBEC09F0000E1C6E7F
:101646008F0EEBEC0AF0175078EC0AF01200610EE0
:101656001E6E080E1F6EEBEC09F0000E1C6E8F0E50
:10166600EBEC0AF0175078EC0AF01200BB0E1E6E77
:10167600080E1F6EEBEC09F0000E1C6E8D0EEBECE7
:101686000AF0175078EC0AF012003AEC0AF005EC72
:101696000BF0BBEC0BF0C60ED56EE00EF26EE70E4D
:1016A600936EF30E926E12002EA25CEF0BF05EEFBD
:1016B6000BF064EF0BF0182E64EF0BF0010E186EB2
:1016C6002E921200000E376E2EB26CEF0BF06EEFFC
:1016D6000BF070EF0BF06BEC04F0375012009E9C91
:1016E600A3EC0BF01BC035F01CC036F0C28235C02F
:1016F6001DF036C01EF01200100020001000200061
:1017060010002000100020001000083F0101040115
:10171600220E1E6E080E1F6EEBEC09F0000E1C6EFC
:101726000C0EEBEC0AF01200010E1E6E080E1F6E78
:10173600EBEC09F0000E1C6E0C0EEBEC0AF012003E
:10174600C450346E336AC3503326000E342233C07D
:101756001BF034C01CF012000600F2A4B5EF0BF02B
:10176600B7EF0BF0B9EF0BF068EC08F04092110000
:10177600F19E0F0EC16E93809382938495909592FD
:101786009594959612001B6E1BC083FF00D0849221
:1017960000D0848212009F0E1E6E080E1F6EEBECA8
:0E17A60009F012001BC011F01CC012F012005E
:020000040020DA
:08000000FFFFFFFFFFFFFFFF00
:020000040030CA
:0E000000000C1E1EFF8381FF0FC00FE00F409B
:00000001FF
